{
  "_format": "hh-sol-artifact-1",
  "contractName": "ChatService",
  "sourceName": "contracts/ChatService.sol",
  "abi": [
    {
      "inputs": [],
      "stateMutability": "payable",
      "type": "constructor"
    },
    {
      "anonymous": false,
      "inputs": [
        {
          "indexed": true,
          "internalType": "address",
          "name": "from",
          "type": "address"
        },
        {
          "indexed": false,
          "internalType": "uint256",
          "name": "timestamp",
          "type": "uint256"
        },
        {
          "indexed": false,
          "internalType": "string",
          "name": "message",
          "type": "string"
        }
      ],
      "name": "NewMessage",
      "type": "event"
    },
    {
      "anonymous": false,
      "inputs": [
        {
          "indexed": true,
          "internalType": "address",
          "name": "from",
          "type": "address"
        },
        {
          "indexed": false,
          "internalType": "uint256",
          "name": "timestamp",
          "type": "uint256"
        },
        {
          "indexed": false,
          "internalType": "uint256",
          "name": "amount",
          "type": "uint256"
        }
      ],
      "name": "NewTip",
      "type": "event"
    },
    {
      "anonymous": false,
      "inputs": [
        {
          "indexed": false,
          "internalType": "uint256",
          "name": "timestamp",
          "type": "uint256"
        }
      ],
      "name": "Withdraw",
      "type": "event"
    },
    {
      "stateMutability": "payable",
      "type": "fallback"
    },
    {
      "inputs": [],
      "name": "getAllMessages",
      "outputs": [
        {
          "components": [
            {
              "internalType": "address",
              "name": "from",
              "type": "address"
            },
            {
              "internalType": "uint256",
              "name": "timestamp",
              "type": "uint256"
            },
            {
              "internalType": "string",
              "name": "message",
              "type": "string"
            }
          ],
          "internalType": "struct ChatService.Message[]",
          "name": "",
          "type": "tuple[]"
        }
      ],
      "stateMutability": "view",
      "type": "function"
    },
    {
      "inputs": [],
      "name": "getAllTips",
      "outputs": [
        {
          "components": [
            {
              "internalType": "address",
              "name": "from",
              "type": "address"
            },
            {
              "internalType": "uint256",
              "name": "timestamp",
              "type": "uint256"
            },
            {
              "internalType": "uint256",
              "name": "amount",
              "type": "uint256"
            }
          ],
          "internalType": "struct ChatService.Tip[]",
          "name": "",
          "type": "tuple[]"
        }
      ],
      "stateMutability": "view",
      "type": "function"
    },
    {
      "inputs": [],
      "name": "getTipsForSender",
      "outputs": [
        {
          "internalType": "uint256",
          "name": "",
          "type": "uint256"
        }
      ],
      "stateMutability": "view",
      "type": "function"
    },
    {
      "inputs": [],
      "name": "getTotalMessages",
      "outputs": [
        {
          "internalType": "uint256",
          "name": "",
          "type": "uint256"
        }
      ],
      "stateMutability": "view",
      "type": "function"
    },
    {
      "inputs": [],
      "name": "getTotalTips",
      "outputs": [
        {
          "internalType": "uint256",
          "name": "",
          "type": "uint256"
        }
      ],
      "stateMutability": "view",
      "type": "function"
    },
    {
      "inputs": [],
      "name": "owner",
      "outputs": [
        {
          "internalType": "address payable",
          "name": "",
          "type": "address"
        }
      ],
      "stateMutability": "view",
      "type": "function"
    },
    {
      "inputs": [
        {
          "internalType": "string",
          "name": "_message",
          "type": "string"
        }
      ],
      "name": "sendMessage",
      "outputs": [],
      "stateMutability": "nonpayable",
      "type": "function"
    },
    {
      "inputs": [],
      "name": "sendTip",
      "outputs": [],
      "stateMutability": "payable",
      "type": "function"
    },
    {
      "inputs": [
        {
          "internalType": "address",
          "name": "",
          "type": "address"
        }
      ],
      "name": "tipsForAddress",
      "outputs": [
        {
          "internalType": "uint256",
          "name": "",
          "type": "uint256"
        }
      ],
      "stateMutability": "view",
      "type": "function"
    },
    {
      "inputs": [],
      "name": "totalMessages",
      "outputs": [
        {
          "internalType": "uint256",
          "name": "",
          "type": "uint256"
        }
      ],
      "stateMutability": "view",
      "type": "function"
    },
    {
      "inputs": [],
      "name": "totalTips",
      "outputs": [
        {
          "internalType": "uint256",
          "name": "",
          "type": "uint256"
        }
      ],
      "stateMutability": "view",
      "type": "function"
    },
    {
      "inputs": [],
      "name": "withdraw",
      "outputs": [],
      "stateMutability": "nonpayable",
      "type": "function"
    },
    {
      "stateMutability": "payable",
      "type": "receive"
    }
  ],
  "bytecode": "0x60806040526200004f6040518060400160405280601481526020017f436f6e747261637420436f6e7374727563746f720000000000000000000000008152506200009560201b62000a451760201c565b336000806101000a81548173ffffffffffffffffffffffffffffffffffffffff021916908373ffffffffffffffffffffffffffffffffffffffff1602179055506200021f565b6200013581604051602401620000ac9190620001fb565b6040516020818303038152906040527f41304fac000000000000000000000000000000000000000000000000000000007bffffffffffffffffffffffffffffffffffffffffffffffffffffffff19166020820180517bffffffffffffffffffffffffffffffffffffffffffffffffffffffff83818316178352505050506200013860201b60201c565b50565b60008151905060006a636f6e736f6c652e6c6f679050602083016000808483855afa5050505050565b600081519050919050565b600082825260208201905092915050565b60005b838110156200019d57808201518184015260208101905062000180565b60008484015250505050565b6000601f19601f8301169050919050565b6000620001c78262000161565b620001d381856200016c565b9350620001e58185602086016200017d565b620001f081620001a9565b840191505092915050565b60006020820190508181036000830152620002178184620001ba565b905092915050565b61178a806200022f6000396000f3fe6080604052600436106100ab5760003560e01c806353f5e3801161006457806353f5e3801461019157806355f203b5146101bc5780638da5cb5b146101e7578063951166c014610212578063990de8ae1461023d578063fd993dfc14610268576100b2565b8063147e9108146100b4578063399ddbbd146100df5780633ccfd60b1461010a578063469c8110146101215780634a2a80c31461014a578063502c406514610187576100b2565b366100b257005b005b3480156100c057600080fd5b506100c9610293565b6040516100d69190610c58565b60405180910390f35b3480156100eb57600080fd5b506100f46102de565b6040516101019190610db4565b60405180910390f35b34801561011657600080fd5b5061011f6103a7565b005b34801561012d57600080fd5b5061014860048036038101906101439190610f30565b6104ae565b005b34801561015657600080fd5b50610171600480360381019061016c9190610fa5565b61061e565b60405161017e9190610c58565b60405180910390f35b61018f610636565b005b34801561019d57600080fd5b506101a6610832565b6040516101b39190611163565b60405180910390f35b3480156101c857600080fd5b506101d1610983565b6040516101de9190610c58565b60405180910390f35b3480156101f357600080fd5b506101fc6109ce565b60405161020991906111a6565b60405180910390f35b34801561021e57600080fd5b506102276109f2565b6040516102349190610c58565b60405180910390f35b34801561024957600080fd5b506102526109f8565b60405161025f9190610c58565b60405180910390f35b34801561027457600080fd5b5061027d6109fe565b60405161028a9190610c58565b60405180910390f35b60006102d66040518060400160405280600b81526020017f2564206d65737361676573000000000000000000000000000000000000000000815250600154610ade565b600154905090565b60606005805480602002602001604051908101604052809291908181526020016000905b8282101561039e57838290600052602060002090600302016040518060600160405290816000820160009054906101000a900473ffffffffffffffffffffffffffffffffffffffff1673ffffffffffffffffffffffffffffffffffffffff1673ffffffffffffffffffffffffffffffffffffffff1681526020016001820154815260200160028201548152505081526020019060010190610302565b50505050905090565b60008060009054906101000a900473ffffffffffffffffffffffffffffffffffffffff1673ffffffffffffffffffffffffffffffffffffffff16476040516103ee906111f2565b60006040518083038185875af1925050503d806000811461042b576040519150601f19603f3d011682016040523d82523d6000602084013e610430565b606091505b5050905080610474576040517f08c379a000000000000000000000000000000000000000000000000000000000815260040161046b90611264565b60405180910390fd5b7f5b6b431d4476a211bb7d41c20d1aab9ae2321deee0d20be3d9fc9b1093fa6e3d426040516104a39190610c58565b60405180910390a150565b60018060008282546104c091906112b3565b925050819055506105066040518060400160405280600b81526020017f2573206d6573736167656400000000000000000000000000000000000000000081525033610b7a565b600460405180606001604052803373ffffffffffffffffffffffffffffffffffffffff16815260200142815260200183815250908060018154018082558091505060019003906000526020600020906003020160009091909190915060008201518160000160006101000a81548173ffffffffffffffffffffffffffffffffffffffff021916908373ffffffffffffffffffffffffffffffffffffffff1602179055506020820151816001015560408201518160020190816105c891906114f3565b5050503373ffffffffffffffffffffffffffffffffffffffff167f0ff94fec3112de81726d79117e091c7c9d47da8a38c73e8cec7ee350a61898a642836040516106139291906115fe565b60405180910390a250565b60036020528060005260406000206000915090505481565b60003411610679576040517f08c379a00000000000000000000000000000000000000000000000000000000081526004016106709061167a565b60405180910390fd5b346002600082825461068b91906112b3565b9250508190555034600360003373ffffffffffffffffffffffffffffffffffffffff1673ffffffffffffffffffffffffffffffffffffffff16815260200190815260200160002060008282546106e191906112b3565b925050819055506107276040518060400160405280600d81526020017f25732073656e742061207469700000000000000000000000000000000000000081525033610b7a565b600560405180606001604052803373ffffffffffffffffffffffffffffffffffffffff16815260200142815260200134815250908060018154018082558091505060019003906000526020600020906003020160009091909190915060008201518160000160006101000a81548173ffffffffffffffffffffffffffffffffffffffff021916908373ffffffffffffffffffffffffffffffffffffffff160217905550602082015181600101556040820151816002015550503373ffffffffffffffffffffffffffffffffffffffff167f2425393fb7c0445f311a4f27ad01a35c0437399fa7580c95a4eae873182b6b60423460405161082892919061169a565b60405180910390a2565b60606004805480602002602001604051908101604052809291908181526020016000905b8282101561097a57838290600052602060002090600302016040518060600160405290816000820160009054906101000a900473ffffffffffffffffffffffffffffffffffffffff1673ffffffffffffffffffffffffffffffffffffffff1673ffffffffffffffffffffffffffffffffffffffff168152602001600182015481526020016002820180546108e990611316565b80601f016020809104026020016040519081016040528092919081815260200182805461091590611316565b80156109625780601f1061093757610100808354040283529160200191610962565b820191906000526020600020905b81548152906001019060200180831161094557829003601f168201915b50505050508152505081526020019060010190610856565b50505050905090565b60006109c66040518060400160405280600781526020017f2564207469707300000000000000000000000000000000000000000000000000815250600254610ade565b600254905090565b60008054906101000a900473ffffffffffffffffffffffffffffffffffffffff1681565b60015481565b60025481565b6000600360003373ffffffffffffffffffffffffffffffffffffffff1673ffffffffffffffffffffffffffffffffffffffff16815260200190815260200160002054905090565b610adb81604051602401610a5991906116c3565b6040516020818303038152906040527f41304fac000000000000000000000000000000000000000000000000000000007bffffffffffffffffffffffffffffffffffffffffffffffffffffffff19166020820180517bffffffffffffffffffffffffffffffffffffffffffffffffffffffff8381831617835250505050610c16565b50565b610b768282604051602401610af49291906116e5565b6040516020818303038152906040527fb60e72cc000000000000000000000000000000000000000000000000000000007bffffffffffffffffffffffffffffffffffffffffffffffffffffffff19166020820180517bffffffffffffffffffffffffffffffffffffffffffffffffffffffff8381831617835250505050610c16565b5050565b610c128282604051602401610b90929190611724565b6040516020818303038152906040527f319af333000000000000000000000000000000000000000000000000000000007bffffffffffffffffffffffffffffffffffffffffffffffffffffffff19166020820180517bffffffffffffffffffffffffffffffffffffffffffffffffffffffff8381831617835250505050610c16565b5050565b60008151905060006a636f6e736f6c652e6c6f679050602083016000808483855afa5050505050565b6000819050919050565b610c5281610c3f565b82525050565b6000602082019050610c6d6000830184610c49565b92915050565b600081519050919050565b600082825260208201905092915050565b6000819050602082019050919050565b600073ffffffffffffffffffffffffffffffffffffffff82169050919050565b6000610cca82610c9f565b9050919050565b610cda81610cbf565b82525050565b610ce981610c3f565b82525050565b606082016000820151610d056000850182610cd1565b506020820151610d186020850182610ce0565b506040820151610d2b6040850182610ce0565b50505050565b6000610d3d8383610cef565b60608301905092915050565b6000602082019050919050565b6000610d6182610c73565b610d6b8185610c7e565b9350610d7683610c8f565b8060005b83811015610da7578151610d8e8882610d31565b9750610d9983610d49565b925050600181019050610d7a565b5085935050505092915050565b60006020820190508181036000830152610dce8184610d56565b905092915050565b6000604051905090565b600080fd5b600080fd5b600080fd5b600080fd5b6000601f19601f8301169050919050565b7f4e487b7100000000000000000000000000000000000000000000000000000000600052604160045260246000fd5b610e3d82610df4565b810181811067ffffffffffffffff82111715610e5c57610e5b610e05565b5b80604052505050565b6000610e6f610dd6565b9050610e7b8282610e34565b919050565b600067ffffffffffffffff821115610e9b57610e9a610e05565b5b610ea482610df4565b9050602081019050919050565b82818337600083830152505050565b6000610ed3610ece84610e80565b610e65565b905082815260208101848484011115610eef57610eee610def565b5b610efa848285610eb1565b509392505050565b600082601f830112610f1757610f16610dea565b5b8135610f27848260208601610ec0565b91505092915050565b600060208284031215610f4657610f45610de0565b5b600082013567ffffffffffffffff811115610f6457610f63610de5565b5b610f7084828501610f02565b91505092915050565b610f8281610cbf565b8114610f8d57600080fd5b50565b600081359050610f9f81610f79565b92915050565b600060208284031215610fbb57610fba610de0565b5b6000610fc984828501610f90565b91505092915050565b600081519050919050565b600082825260208201905092915050565b6000819050602082019050919050565b600081519050919050565b600082825260208201905092915050565b60005b8381101561103857808201518184015260208101905061101d565b60008484015250505050565b600061104f82610ffe565b6110598185611009565b935061106981856020860161101a565b61107281610df4565b840191505092915050565b60006060830160008301516110956000860182610cd1565b5060208301516110a86020860182610ce0565b50604083015184820360408601526110c08282611044565b9150508091505092915050565b60006110d9838361107d565b905092915050565b6000602082019050919050565b60006110f982610fd2565b6111038185610fdd565b93508360208202850161111585610fee565b8060005b85811015611151578484038952815161113285826110cd565b945061113d836110e1565b925060208a01995050600181019050611119565b50829750879550505050505092915050565b6000602082019050818103600083015261117d81846110ee565b905092915050565b600061119082610c9f565b9050919050565b6111a081611185565b82525050565b60006020820190506111bb6000830184611197565b92915050565b600081905092915050565b50565b60006111dc6000836111c1565b91506111e7826111cc565b600082019050919050565b60006111fd826111cf565b9150819050919050565b600082825260208201905092915050565b7f4661696c656420746f2077697468647261770000000000000000000000000000600082015250565b600061124e601283611207565b915061125982611218565b602082019050919050565b6000602082019050818103600083015261127d81611241565b9050919050565b7f4e487b7100000000000000000000000000000000000000000000000000000000600052601160045260246000fd5b60006112be82610c3f565b91506112c983610c3f565b92508282019050808211156112e1576112e0611284565b5b92915050565b7f4e487b7100000000000000000000000000000000000000000000000000000000600052602260045260246000fd5b6000600282049050600182168061132e57607f821691505b602082108103611341576113406112e7565b5b50919050565b60008190508160005260206000209050919050565b60006020601f8301049050919050565b600082821b905092915050565b6000600883026113a97fffffffffffffffffffffffffffffffffffffffffffffffffffffffffffffffff8261136c565b6113b3868361136c565b95508019841693508086168417925050509392505050565b6000819050919050565b60006113f06113eb6113e684610c3f565b6113cb565b610c3f565b9050919050565b6000819050919050565b61140a836113d5565b61141e611416826113f7565b848454611379565b825550505050565b600090565b611433611426565b61143e818484611401565b505050565b5b818110156114625761145760008261142b565b600181019050611444565b5050565b601f8211156114a75761147881611347565b6114818461135c565b81016020851015611490578190505b6114a461149c8561135c565b830182611443565b50505b505050565b600082821c905092915050565b60006114ca600019846008026114ac565b1980831691505092915050565b60006114e383836114b9565b9150826002028217905092915050565b6114fc82610ffe565b67ffffffffffffffff81111561151557611514610e05565b5b61151f8254611316565b61152a828285611466565b600060209050601f83116001811461155d576000841561154b578287015190505b61155585826114d7565b8655506115bd565b601f19841661156b86611347565b60005b828110156115935784890151825560018201915060208501945060208101905061156e565b868310156115b057848901516115ac601f8916826114b9565b8355505b6001600288020188555050505b505050505050565b60006115d082610ffe565b6115da8185611207565b93506115ea81856020860161101a565b6115f381610df4565b840191505092915050565b60006040820190506116136000830185610c49565b818103602083015261162581846115c5565b90509392505050565b7f496e73756666696369656e742074697000000000000000000000000000000000600082015250565b6000611664601083611207565b915061166f8261162e565b602082019050919050565b6000602082019050818103600083015261169381611657565b9050919050565b60006040820190506116af6000830185610c49565b6116bc6020830184610c49565b9392505050565b600060208201905081810360008301526116dd81846115c5565b905092915050565b600060408201905081810360008301526116ff81856115c5565b905061170e6020830184610c49565b9392505050565b61171e81610cbf565b82525050565b6000604082019050818103600083015261173e81856115c5565b905061174d6020830184611715565b939250505056fea264697066735822122011e5565fca1aedb842ab6c8ec98b790937dcb5bc3abc416072b5d2a6614c3f9b64736f6c63430008110033",
  "linkReferences": {},
  "deployedLinkReferences": {}
}